S02000004D6172696F5F4C696265726F5F4D53535F434D335F6170702E737265633C
S3152000000000000120910100207F03002081030020B1
S3152000001083030020850300208703002000000000C2
S3152000002000000000000000000000000089030020FE
S315200000308B030020000000008D0300208F0300208A
S315200000409103002093030020513B0020753B0020A4
S31520000050F14400209B0300209D030020154500202D
S31520000060A1030020A3030020A5030020A70300204E
S31520000070A9030020AB030020992D0020AF03002008
S31520000080B1030020B3030020B5030020B7030020EE
S31520000090B9030020BB030020BD030020BF030020BE
S315200000A0C1030020C3030020C5030020C70300208E
S315200000B0C9030020CB030020CD030020CF0300205E
S315200000C0D1030020D3030020D5030020D70300202E
S315200000D0D9030020DB030020DD030020DF030020FE
S315200000E0E1030020E3030020E5030020E7030020CE
S315200000F0E9030020EB030020ED030020EF0300209E
S31520000100F1030020F3030020F5030020F70300206D
S31520000110F9030020FB030020FD030020792D002099
S315200001200104002003040020050400200704002009
S31520000130090400200B0400200D0400200F040020D9
S3152000014011040020130400201504002017040020A9
S31520000150190400201B0400201D0400201F04002079
S315200001602104002023040020250400202704002049
S31520000170290400202B0400202D0400202F04002019
S31520000180310400203304002000000000000000009D
S315200001904FF0000BDFF8BE020068DFF8B6120968E0
S315200001A001F0030100F01C00142801D14BF0020BD2
S315200001B0002901D04BF0010BBBF1000F05D0A74859
S315200001C0A749DFF8722200F09FF8A64880470BF077
S315200001D0020ABAF1000F0CD0DFF86E02DFF86E12B9
S315200001E002680B680FB44FF000024FF0FF03026065
S315200001F00B609D489D4A9E4B022808D1DFF83E128F
S315200002000A60DFF842120A60DFF836120B60012816
S3152000021008D1DFF82E120A60DFF82A120A60DFF80A
S315200002201E120B609348002809D193489349944A9B
S3152000023000F032F893489449944A00F02DF89448F7
S315200002409449954A00F028F894489549DFF8E62124
S3152000025000F05AF8BBF1000F12D092489249DFF80D
S31520000260DA2100F051F80BF0020ABAF1000F07D09C
S315200002700FBC02600B6000BFAFF30080AFF30080BD
S31520000280DFF828020FF2030E00474FF000004FF070
S315200002900001DFF81CF2FEE72DE9F841884225D05F
S315200002A0B2EB010200D5FEE740EA010313F0030397
S315200002B002D000F01DF819E04FF00003904612110D
S315200002C0F7D09A421CBFF0C8F0C103F10103F8D160
S315200002D008F00F08B8F1000F08D004780C7000F170
S315200002E0010001F10101B8F10108F6D1BDE8F8815C
S315200002F008B54FF0000303780B7000F1010001F1FF
S315200003000101013AF7D108BD884237D000F0030633
S31520000310002E14D04FF00405A5EB06044FF0080775
S3152000032007FB06F8914669FA08F9002C07D080F8F1
S31520000330009069FA07F900F10100013CF5E74FF05A
S3152000034000060F46091A8846091191461446154695
S31520000350B14206D018BFA0E8340206F10106B14228
S31520000360F8D108F00F08B8F1000F07D002704FEA55
S31520000370322200F10100B8F10108F4E77047FEE7E8
S31520000380FEE7FEE7FEE7FEE7FEE7FEE7FEE7FEE71F
S31520000390FEE7FEE7FEE7FEE7FEE7FEE7FEE7FEE70F
S315200003A0FEE7FEE7FEE7FEE7FEE7FEE7FEE7FEE7FF
S315200003B0FEE7FEE7FEE7FEE7FEE7FEE7FEE7FEE7EF
S315200003C0FEE7FEE7FEE7FEE7FEE7FEE7FEE7FEE7DF
S315200003D0FEE7FEE7FEE7FEE7FEE7FEE7FEE7FEE7CF
S315200003E0FEE7FEE7FEE7FEE7FEE7FEE7FEE7FEE7BF
S315200003F0FEE7FEE7FEE7FEE7FEE7FEE7FEE7FEE7AF
S31520000400FEE7FEE7FEE7FEE7FEE7FEE7FEE7FEE79E
S31520000410FEE7FEE7FEE7FEE7FEE7FEE7FEE7FEE78E
S31520000420FEE7FEE7FEE7FEE7FEE7FEE7FEE7FEE77E
S31520000430FEE7FEE7704700000000A2A2A2A200800D
S3152000044003400880034010800340308003403480FE
S3152000045003403880034018080240000000F00020C6
S315200004600000012079450020000000000000000067
S315200004700100000000000000000000200000002015
S3152000048090010020C0040020C004002000A000200D
S3152000049000A0002000A0002040B5002040B500208C
S315200004A000E0002000E0002000F00020554600205B
S315200004B055090020AFF30080AFF30080AFF3008032
S315200004C04BF24053C2F200031A780AB90120187081
S315200004D0704700BF4AF20000C2F2000008B5036868
S315200004E02BB140F20003C0F2000303B1984708BDC8
S315200004F080B400AF40F20003C4F208234FF001029B
S31520000500C3F88021BD4680BC704700BF80B483B04D
S3152000051000AF786044F20003C4F200037A685A60A0
S3152000052007F10C07BD4680BC704700BF80B400AF02
S3152000053044F20003C4F200034FF001021A61BFF334
S315200005404F8FBD4680BC704780B483B000AF7860C3
S3152000055039603B68002B02D0012B1AD032E04AF2D8
S315200005600C03C2F200031B687A681A604AF204037D
S31520000570C2F200031B6841F210021A604AF2040319
S31520000580C2F200031B681B6803F08073002BF5D1B1
S3152000059018E04AF21C03C2F200031B687A681A604C
S315200005A04AF20403C2F200031B6842F220021A60D8
S315200005B04AF20403C2F200031B681B6803F00073AF
S315200005C0002BF5D107F10C07BD4680BC704700BF54
S315200005D080B487B000AFF860B9607A60FB68002B02
S315200005E003D0012B00F0D780AEE1BB68042B25D1C8
S315200005F04FF000037B611DE07A687B6942FA03F3C2
S3152000060003F00103DBB2002B08D07A694BF698433E
S31520000610C2F200034FF00101995407E07A694BF6C4
S315200006209843C2F200034FF0000199547B6903F10D
S3152000063001037B617B690F2BDEDD85E0BB68052B23
S3152000064029D14FF000037B6121E07A687B6942FA69
S3152000065003F303F00103DBB2002B0AD07B6903F11D
S3152000066010024BF69843C2F200034FF00101995451
S3152000067009E07B6903F110024BF69843C2F20003AE
S315200006804FF0000199547B6903F101037B617B697B
S315200006900F2BDADD58E0BB68062B29D14FF000037B
S315200006A07B6121E07A687B6942FA03F303F0010358
S315200006B0DBB2002B0AD07B6903F120024BF698436C
S315200006C0C2F200034FF00101995409E07B6903F15E
S315200006D020024BF69843C2F200034FF000019954D2
S315200006E07B6903F101037B617B690F2BDADD2BE04C
S315200006F0BB68072B28D14FF000037B6121E07A6885
S315200007007B6942FA03F303F00103DBB2002B0AD024
S315200007107B6903F130024BF69843C2F200034FF097
S315200007200101995409E07B6903F130024BF69843A5
S31520000730C2F200034FF0000199547B6903F10103D3
S315200007407B617B690F2BDADD4AF20C03C2F20003D0
S315200007501B68BA684FEA02417A6841EA02021A60C7
S315200007604AF20803C2F200031B684FF001021A6026
S315200007704AF20403C2F200031B684FF480521A6047
S315200007804AF20403C2F200031B681B6803F080735D
S31520000790002BF5D1D8E0BB68042B29D14FF00003FC
S315200007A07B6121E07A687B6942FA03F303F0010357
S315200007B0DBB2002B0AD07B6903F140024BF698434B
S315200007C0C2F200034FF00101995409E07B6903F15D
S315200007D040024BF69843C2F200034FF000019954B1
S315200007E07B6903F101037B617B690F2BDADD85E0F1
S315200007F0BB68052B29D14FF000037B6121E07A6885
S315200008007B6942FA03F303F00103DBB2002B0AD023
S315200008107B6903F150024BF69843C2F200034FF076
S315200008200101995409E07B6903F150024BF6984384
S31520000830C2F200034FF0000199547B6903F10103D2
S315200008407B617B690F2BDADD58E0BB68062B29D14B
S315200008504FF000037B6121E07A687B6942FA03F35B
S3152000086003F00103DBB2002B0AD07B6903F160029F
S315200008704BF69843C2F200034FF00101995409E068
S315200008807B6903F160024BF69843C2F200034FF0F6
S31520000890000199547B6903F101037B617B690F2B6E
S315200008A0DADD2BE0BB68072B28D14FF000037B61F4
S315200008B021E07A687B6942FA03F303F00103DBB295
S315200008C0002B0AD07B6903F170024BF69843C2F2E3
S315200008D000034FF00101995409E07B6903F170028E
S315200008E04BF69843C2F200034FF0000199547B69FE
S315200008F003F101037B617B690F2BDADD4AF21C03CE
S31520000900C2F200031B68BA684FEA02417A6841EADC
S3152000091002021A604AF21803C2F200031B684FF063
S3152000092001021A604AF20403C2F200031B684FF464
S3152000093000521A604AF20403C2F200031B681B68C5
S3152000094003F00073002BF5D107F11C07BD4680BCD0
S31520000950704700BF90B58FB002AF4FF0000004F093
S3152000096047FA48F20003C4F2030348F20002C4F235
S315200009700302926C42F480329A6448F20003C4F275
S31520000980030348F20002C4F20302926C22F480327E
S315200009909A644DF68460C2F2000002F0E9FA4FF044
S315200009A0080300934DF68460C2F200004FF0000168
S315200009B04FF000024FF0080302F024FC4FF0000332
S315200009C0FB604FF000033B614FF000004FF00C013D
S315200009D043F68402FFF7FCFD4FF001004FF00C01B7
S315200009E043F68402FFF7F4FD4FF000004FF00C01B0
S315200009F043F68402FFF7ECFD4FF001004FF00C01A7
S31520000A0043F68402FFF7E4FD4FF000004FF00201A9
S31520000A104FF00102FFF7DCFD4FF001004FF002011D
S31520000A204FF00102FFF7D4FD4FF000004FF0020116
S31520000A304FF00102FFF7CCFD4FF001004FF002010D
S31520000A404FF00102FFF7C4FD4FF000004FF0040104
S31520000A504FF6FF72FFF7BCFD4FF000004FF0050187
S31520000A604FF6FF72FFF7B4FD4FF000004FF006017E
S31520000A704FF6FF72FFF7ACFD4FF000004FF0070175
S31520000A804FF6FF72FFF7A4FD4FF001004FF004016F
S31520000A904FF6FF72FFF79CFD4FF001004FF0050166
S31520000AA04FF6FF72FFF794FD4FF001004FF006015D
S31520000AB04FF00002FFF78CFD4FF001004FF00701C9
S31520000AC04FF00002FFF784FD4FF000004FF00401C5
S31520000AD04FF6FF72FFF77CFD4FF000004FF0050147
S31520000AE04FF6FF72FFF774FD4FF000004FF006013E
S31520000AF04FF6FF72FFF76CFD4FF000004FF0070135
S31520000B004FF6FF72FFF764FD4FF001004FF004012E
S31520000B104FF6FF72FFF75CFD4FF001004FF0050125
S31520000B204FF6FF72FFF754FD4FF001004FF006011C
S31520000B304FF00002FFF74CFD4FF001004FF0070188
S31520000B404FF00002FFF744FD4FF000004FF00D017B
S31520000B504FF48042FFF73CFD4FF000004FF00D01AF
S31520000B604FF48042FFF734FD4FF001004FF00D01A6
S31520000B704FF48042FFF72CFD4FF001004FF00D019E
S31520000B804FF48042FFF724FD4FF00003BB614FF086
S31520000B900003FB600CE0FA684BF6D033C2F2000388
S31520000BA04FF0000123F81210FB6803F10103FB60EC
S31520000BB0FB68632BEFDD4FF00003FB601DE04FF079
S31520000BC000033B6112E0F9683A694BF28C53C2F29A
S31520000BD000034FF0640000FB01F10A444FF00001CE
S31520000BE023F812103B6903F101033B613B69632B38
S31520000BF0E9DDFB6803F10103FB60FB68072BDEDD03
S31520000C004FF00003FB6010E0FA684BF28C53C2F2FF
S31520000C1000034FF0C80101FB02F213444FF42A42AD
S31520000C201A80FB6803F10103FB60FB68072BEBDDF1
S31520000C304FF00003FB600CE0FA684BF6D453C2F287
S31520000C4000034FF0000123F81210FB6803F10103A3
S31520000C50FB60FA6840F2FF739A42EDDD4FF0100018
S31520000C6003F028FD03461A464BF65853C2F20003FA
S31520000C701A604BF65853C2F200031B68002B00D1B2
S31520000C8000BE4FF00003FB6026E04BF65853C2F23D
S31520000C9000031A68FB684FEA830302EB03044AF257
S31520000CA03003C2F200031B684FEAC303184603F061
S31520000CB001FD034623604BF65853C2F200031A681F
S31520000CC0FB684FEA830313441B68002B00D100BE48
S31520000CD0FB6803F10103FB60FB68032BD5DD4AF2B9
S31520000CE03003C2F200031B684FEA8303184603F061
S31520000CF0E1FC03461A464BF65C53C2F200031A6027
S31520000D004BF65C53C2F200031B68002B00D100BED9
S31520000D104FF000037B840AE000BF08E000BF06E036
S31520000D2000BF04E000BF02E000BF00E000BF4BF2BE
S31520000D308453C2F200031A684BF28853C2F20003AE
S31520000D401B68C3EB020303F03F03042B40F2CA8760
S31520000D504FF00003FB6023E0F9684BF28853C2F2A0
S31520000D6000031A684BF24453C2F200039B5CDAB2CA
S31520000D7007F1300000EB010303F82C2C4BF28853CB
S31520000D80C2F200031B6803F1010303F03F024BF29A
S31520000D908853C2F200031A60FB6803F10103FB606B
S31520000DA0FB68042BD8DD3B79FF2B40F04A81FB7989
S31520000DB003F00303BB613B7A4FEA5313DBB203F024
S31520000DC00103DAB24BF61A53C2F200031A703B7AC9
S31520000DD04FEA1313DBB203F00103DAB24BF61B53CF
S31520000DE0C2F200031A704BF61A53C2F200031B78A4
S31520000DF0002B06D04BF61953C2F200034FF0010226
S31520000E001A704BF61B53C2F200031B78002B0DD031
S31520000E104BF61953C2F200034FF000021A704BF63C
S31520000E204853C2F200034FF000021A60FB794FEAE2
S31520000E30D313DAB24BF61D53C2F200031A70FB79B4
S31520000E404FEA9313DBB203F00103DAB24BF61E53DB
S31520000E50C2F200031A704BF61D53C2F200031B7830
S31520000E60002B1BD04BF61C53C2F200034FF001029D
S31520000E701A704BF62353C2F200034FF000021A7089
S31520000E804AF22C03C2F200034FF007021A704AF20C
S31520000E902D03C2F200034FF001021A704BF61E53C7
S31520000EA0C2F200031B78002B06D04BF61C53C2F26D
S31520000EB000034FF000021A70FB794FEA5313DBB29E
S31520000EC003F00103DBB2002B00F0A3807B794FEA0D
S31520000ED00322BB7942EA030303F1FF331A464BF69A
S31520000EE04853C2F200031A60FB794FEAD303DBB200
S31520000EF003F001024BF64053C2F200031A60FB795D
S31520000F004FEA1313DBB203F001024BF64453C2F24D
S31520000F1000031A604BF64053C2F200031B68002BF5
S31520000F2037D040F209404FF00001FFF70DFB4BF69A
S31520000F304853C2F200031B68002B69D04AF20C0307
S31520000F40C2F200031B684FF480321A604AF208038B
S31520000F50C2F200031B684FF000021A604AF2040333
S31520000F60C2F200031B681A684BF65053C2F2000304
S31520000F701A604BF65453C2F200034FF001021A7066
S31520000F804AF20403C2F200031B684FF480521A602F
S31520000F903FE04BF64453C2F200031B68002B38D0C7
S31520000FA040F209404FF00101FFF7CEFA4BF64853C5
S31520000FB0C2F200031B68002B2BD04AF21C03C2F29C
S31520000FC000031B684FF480321A604AF21803C2F2FB
S31520000FD000031B684FF000021A604AF20403C2F2B3
S31520000FE000031B681A684BF65053C2F200031A60BE
S31520000FF04BF65453C2F200034FF001021A704AF224
S315200010000403C2F200031B684FF400521A6000E08A
S3152000101000BF3B7A03F00103DBB2002B08D04BF66E
S315200010209553C2F200034FF001021A7000F05ABE27
S315200010304BF69553C2F200034FF000021A7000F0EF
S3152000104051BE3B79DD2B40F03C837B794FEA03236D
S315200010509AB2BB7942EA03039BB29AB24BF66C531F
S31520001060C2F200031A804BF66653C2F200034FF019
S3152000107000021A803B7A4FEA1313DBB203F0010316
S31520001080DAB24BF66E53C2F200031A70FB7903F004
S315200010900103DAB24BF66F53C2F200031A70FB79E2
S315200010A04FEA5303DBB203F00103DAB24BF6705377
S315200010B0C2F200031A70FB794FEA9303DBB203F006
S315200010C00103DAB24BF67153C2F200031A703B7A6F
S315200010D04FEA5313DAB24BF68453C2F200031A7066
S315200010E0FB794FEAD303DBB21A4602F003024BF632
S315200010F08653C2F200031A704BF68453C2F20003E1
S315200011001B78072B00F2D48001A252F823F000BFEF
S31520001110311100206111002091110020C111002001
S31520001120F1110020211200205112002081120020EE
S315200011304AF23003C2F200034FF010021A604BF25B
S315200011403803C2F200034FF007021A704DF6E85337
S31520001150C2F2000349F62872C2F200021A60BEE00B
S315200011604AF23003C2F200034FF020021A604BF21B
S315200011703803C2F200034FF006021A704DF6E85308
S31520001180C2F2000349F63872C2F200021A60A6E0E3
S315200011904AF23003C2F200034FF040021A604BF2CB
S315200011A03803C2F200034FF005021A704DF6E853D9
S315200011B0C2F2000349F64872C2F200021A608EE0BB
S315200011C04AF23003C2F200034FF080021A604BF25B
S315200011D03803C2F200034FF004021A704DF6E853AA
S315200011E0C2F2000349F65872C2F200021A6076E093
S315200011F04AF23003C2F200034FF480721A604BF2B7
S315200012003803C2F200034FF003021A704DF6E8537A
S31520001210C2F2000349F66872C2F200021A605EE06A
S315200012204AF23003C2F200034FF400721A604BF206
S315200012303803C2F200034FF002021A704DF6E8534B
S31520001240C2F2000349F67872C2F200021A6046E042
S315200012504AF23003C2F200034FF480621A604BF266
S315200012603803C2F200034FF001021A704DF6E8531C
S31520001270C2F2000349F68872C2F200021A602EE01A
S315200012804AF23003C2F200034FF400621A604BF2B6
S315200012903803C2F200034FF000021A704DF6E853ED
S315200012A0C2F2000349F69872C2F200021A6016E0F2
S315200012B04AF23003C2F200034FF480721A604BF2F6
S315200012C03803C2F200034FF003021A704DF6E853BA
S315200012D0C2F2000349F66872C2F200021A604FF0A9
S315200012E00003FB6033E04BF65853C2F200031A6842
S315200012F0FB684FEA830313441B68184603F0D2F9B0
S315200013004BF65853C2F200031A68FB684FEA830370
S3152000131002EB03044AF23003C2F200031B684FEAD1
S31520001320C303184603F0C6F9034623604BF6585309
S31520001330C2F200031A68FB684FEA830313441B6852
S31520001340002B00D100BEFB6803F10103FB60FB68A4
S31520001350032BC8DD4BF65C53C2F200031B6818460C
S3152000136003F0A0F94AF23003C2F200031B684FEAE9
S315200013708303184603F09EF903461A464BF65C5340
S31520001380C2F200031A604BF65C53C2F200031B68DC
S31520001390002B00D100BE3B7A4FEAD303DBB203F029
S315200013A00103DBB2002B50D04BF67353C2F200037D
S315200013B04FF000021A704FF000033B6126E04FF019
S315200013C00003FB6014E04BF65853C2F200031A6880
S315200013D03B694FEA830313441A68FB684FEA4303C9
S315200013E013444FF000021A80FB6803F10103FB60EF
S315200013F0FA684AF23003C2F200031B684FEA43033D
S315200014009A42E0D33B6903F101033B613B69032B1D
S31520001410D5DD4FF00003FB600FE04BF65C53C2F2C4
S3152000142000031A68FB684FEA830313444FF0000257
S315200014301A60FB6803F10103FB60FA684AF2300385
S31520001440C2F200031B689A42E7D33B7A4FEA930322
S31520001450DBB203F00103DBB2002B26D04BF673532D
S31520001460C2F200034FF001021A704BF66053C2F22B
S3152000147000034FF000021A804AF23003C2F2000342
S315200014801B689AB24BF66253C2F200031A804BF6DF
S315200014908553C2F200034FF000021A704BF66453D4
S315200014A0C2F200034FF000021A803B7A4FEA530340
S315200014B0DBB203F00103DBB2002B50D04BF67253A4
S315200014C0C2F200034FF000021A704FF000033B6196
S315200014D026E04FF00003FB6014E04BF65853C2F2AF
S315200014E000031A683B694FEA830313441A68FB68B2
S315200014F04FEA430313444FF000021A80FB6803F1BE
S315200015000103FB60FA684AF23003C2F200031B684B
S315200015104FEA43039A42E0D33B6903F101033B615F
S315200015203B69032BD5DD4FF00003FB600FE04BF644
S315200015305C53C2F200031A68FB684FEA8303134424
S315200015404FF000021A60FB6803F10103FB60FA68A2
S315200015504AF23003C2F200031B689A42E7D33B7A71
S3152000156003F00103DBB2002B26D04BF67253C2F2F6
S3152000157000034FF001021A704BF66053C2F20003CB
S315200015804FF000021A804AF23003C2F200031B68B1
S315200015909AB24BF66253C2F200031A804BF664539A
S315200015A0C2F200034FF000021A804BF68553C2F2B6
S315200015B000034FF000021A704BF67E53C2F200036E
S315200015C01A884BF67C53C2F200031B88C3EB020336
S315200015D09BB203F101039AB24BF68053C2F2000389
S315200015E01A804FF00003FB601FE0FA684BF67C532D
S315200015F0C2F200031B881946FB6819444BF23803D4
S31520001600C2F200031B7801FA03F14AF23803C2F250
S31520001610000333F811104BF6D453C2F2000323F81B
S315200016201210FB6803F10103FB604BF68053C2F2F4
S3152000163000031B881A46FB689A42D6DC4BF6885371
S31520001640C2F200031A884BF68A53C2F200031B88A3
S31520001650C3EB02039BB203F101039AB24BF682530A
S31520001660C2F200031A804FF00003FB601FE0FA6805
S315200016704BF68A53C2F200031B881946FB681944AD
S315200016804BF23803C2F200031B7801FA03F14AF247
S315200016903803C2F2000333F811104CF6D453C2F2C9
S315200016A0000323F81210FB6803F10103FB604BF6DD
S315200016B08253C2F200031B881A46FB689A42D6DC84
S315200016C010E33B79EE2B4DD1BB794FEAD313DAB237
S315200016D04BF67453C2F200031A70BB7903F07F03F2
S315200016E04FEA0322FB7942EA03034FEA83124BF6C1
S315200016F07853C2F200031A607B795BB2002B0BDAB7
S315200017004BF67853C2F200031B68C3F100024BF676
S315200017107853C2F200031A603B7A5BB2002B07DAD9
S315200017204AF23403C2F200034FF001021A8006E0A7
S315200017304AF23403C2F200034FF002021A807B7988
S315200017401A4602F07F024DF6D553C2F200031A70F4
S315200017503B7A1A4602F07F024DF6EC53C2F20003A2
S315200017601A70BFE23B79CC2B20D17B7903F003039F
S315200017704FEA03239AB2BB7942EA03039BB29AB299
S315200017804BF67E53C2F200031A80FB7903F0030363
S315200017904FEA03239AB23B7A42EA03039BB29AB2F8
S315200017A04BF67C53C2F200031A809BE23B79AB2BAB
S315200017B020D17B7903F003034FEA03239AB2BB7946
S315200017C042EA03039BB29AB24BF68853C2F2000355
S315200017D01A80FB7903F003034FEA03239AB23B7A7C
S315200017E042EA03039BB29AB24BF68A53C2F2000333
S315200017F01A8077E23B79CD2B3CD17B794FEAD31304
S31520001800DAB24BF68C53C2F200031A70BB794FEA58
S31520001810D313DAB24BF68D53C2F200031A70BB799A
S3152000182003F07F034FEA0322FB7942EA03034FEAE0
S3152000183083124BF69053C2F200031A607B7903F0B1
S315200018400103DBB2002B0BD04BF69053C2F2000300
S315200018501B68C3F100024BF69053C2F200031A60D4
S315200018603B7A4FEAD313DAB24BF69453C2F2000313
S315200018701A7037E23B79BB2B1CD17B794FEA0323C5
S315200018809AB2BB7942EA03039BB29AB24BF66A53E9
S31520001890C2F200031A80FB794FEA03239AB23B7AFD
S315200018A042EA03039BB29AB24BF66853C2F2000394
S315200018B01A8017E23B794F2B00F214823B7A1A46A4
S315200018C0FB794FEA03231A44BB794FEA03431A44B0
S315200018D07B794FEA036313441A464BF63453C2F21C
S315200018E000031A604BF63453C2F200031B684FEA1A
S315200018F013431A464BF63853C2F200031A604BF6CE
S315200019003453C2F200031B684FEA03424FEA1242E5
S315200019104BF63C53C2F200031A603B7903F1405365
S315200019201A464BF63453C2F200031B6813604AF280
S315200019300403C2F200031B681B6803F04073002BEC
S31520001940F5D14BF64C53C2F200031B78002B00F066
S31520001950B5814BF64C53C2F200034FF000021A70C9
S315200019603B79242B40F0D5804BF63853C2F2000346
S315200019701B68042B2DD14FF00003FB6025E04BF6AE
S315200019803C53C2F200031A68FB6842FA03F303F0E1
S315200019900103DBB2002B0AD0FB6803F140024BF6B1
S315200019A09843C2F200034FF00101995409E0FB6805
S315200019B003F140024BF69843C2F200034FF00001B8
S315200019C09954FB6803F10103FB60FB680F2BD6DDFE
S315200019D074E14BF63853C2F200031B68052B2DD158
S315200019E04FF00003FB6025E04BF63C53C2F20003A8
S315200019F01A68FB6842FA03F303F00103DBB2002BFB
S31520001A000AD0FB6803F150024BF69843C2F200035A
S31520001A104FF00101995409E0FB6803F150024BF69F
S31520001A209843C2F200034FF000019954FB6803F17A
S31520001A300103FB60FB680F2BD6DD3FE14BF63853E5
S31520001A40C2F200031B68062B2DD14FF00003FB606A
S31520001A5025E04BF63C53C2F200031A68FB6842FAB3
S31520001A6003F303F00103DBB2002B0AD0FB6803F17A
S31520001A7060024BF69843C2F200034FF001019954DD
S31520001A8009E0FB6803F160024BF69843C2F20003BB
S31520001A904FF000019954FB6803F10103FB60FB68DA
S31520001AA00F2BD6DD0AE14BF63853C2F200031B6832
S31520001AB0072B40F002814FF00003FB6025E04BF638
S31520001AC03C53C2F200031A68FB6842FA03F303F0A0
S31520001AD00103DBB2002B0AD0FB6803F170024BF640
S31520001AE09843C2F200034FF00101995409E0FB68C4
S31520001AF003F170024BF69843C2F200034FF0000147
S31520001B009954FB6803F10103FB60FB680F2BD6DDBC
S31520001B10D4E03B79142B40F0D1804BF63853C2F2F7
S31520001B2000031B68042B29D14FF00003FB6021E042
S31520001B304BF63C53C2F200031A68FB6842FA03F3E1
S31520001B4003F00103DBB2002B08D0FA684BF698436A
S31520001B50C2F200034FF00101995407E0FA684BF6F0
S31520001B609843C2F200034FF000019954FB6803F139
S31520001B700103FB60FB680F2BDADD9FE04BF6385341
S31520001B80C2F200031B68052B2DD14FF00003FB602A
S31520001B9025E04BF63C53C2F200031A68FB6842FA72
S31520001BA003F303F00103DBB2002B0AD0FB6803F139
S31520001BB010024BF69843C2F200034FF001019954EC
S31520001BC009E0FB6803F110024BF69843C2F20003CA
S31520001BD04FF000019954FB6803F10103FB60FB6899
S31520001BE00F2BD6DD6AE04BF63853C2F200031B6892
S31520001BF0062B2DD14FF00003FB6025E04BF63C531E
S31520001C00C2F200031A68FB6842FA03F303F00103E9
S31520001C10DBB2002B0AD0FB6803F120024BF6984377
S31520001C20C2F200034FF00101995409E0FB6803F169
S31520001C3020024BF69843C2F200034FF0000199545C
S31520001C40FB6803F10103FB60FB680F2BD6DD35E053
S31520001C504BF63853C2F200031B68072B2ED14FF0E8
S31520001C600003FB6025E04BF63C53C2F200031A68E2
S31520001C70FB6842FA03F303F00103DBB2002B0AD020
S31520001C80FB6803F130024BF69843C2F200034FF093
S31520001C900101995409E0FB6803F130024BF69843A1
S31520001CA0C2F200034FF000019954FB6803F10103CF
S31520001CB0FB60FB680F2BD6DD00E000BF3B79102BC5
S31520001CC002D03B79202B0DD14BF63C53C2F20003B8
S31520001CD01B68012B06D14BF64C53C2F200034FF082
S31520001CE001021A704BF65453C2F200031B7883F09C
S31520001CF00103DBB2002B0AD04AF20403C2F200032E
S31520001D001B681A684BF65053C2F200031A604BF652
S31520001D105453C2F200034FF000021A704BF63053B0
S31520001D20C2F200031B6803F101024BF63053C2F2E4
S31520001D3000031A604BF63053C2F200031B68B3F55A
S31520001D40FA6F2ED94BF6D033C2F200034FF00002C1
S31520001D501A804DF68460C2F200004FF0000101F0B7
S31520001D60F9FA4BF6D033C2F2000303F101034FF028
S31520001D70060200924DF68460C2F2000019464FF02A
S31520001D800B024BF62853C2F2000301F0AFFB4DF6CF
S31520001D908460C2F200004FF0000101F05FFB00F00A
S31520001DA099FF4BF69553C2F200031B78002B00F0E7
S31520001DB0E4824BF65053C2F200031B6803F48013EF
S31520001DC0002B00F021854BF65053C2F200031B680E
S31520001DD003F40013002B00F019854AF22803C2F2FF
S31520001DE000034FF001021A604BF62253C2F20003A1
S31520001DF04FF000021A704FF00003FB60A3E0FB686F
S31520001E00002B07D14AF21403C2F200031B681B6899
S31520001E10BB8394E0FB68412B07D14AF21403C2F23C
S31520001E2000031B681B683B8489E04AF21403C2F254
S31520001E3000031B681B689AB24BF6CC33C2F2000330
S31520001E401A80FB6803F1FF324DF6EC53C2F2000311
S31520001E501B789A4227D14BF62353C2F200031B78F4
S31520001E6018464AF22803C2F200031A684BF6CC330E
S31520001E70C2F200031B8899B24BF28C53C2F20003C4
S31520001E804FF0640C0CFB00F0024423F812104AF2C7
S31520001E902803C2F200031B6803F101024AF2280359
S31520001EA0C2F200031A60FB6803F1FF324DF6D553E8
S31520001EB0C2F200031B789A4227D14BF62353C2F273
S31520001EC000031B7818464AF22803C2F200031A6858
S31520001ED04BF6CC33C2F200031B8899B24BF28C53DB
S31520001EE0C2F200034FF0640C0CFB00F0024423F80E
S31520001EF012104AF22803C2F200031B6803F1010202
S31520001F004AF22803C2F200031A604BF62253C2F2A9
S31520001F1000031B7883F00103DBB2002B0FD04BF6B6
S31520001F20CC33C2F200031B889BB21BB2002B06DA0D
S31520001F304BF62253C2F200034FF001021A70FB68DF
S31520001F4003F10103FB60FB68412B7FF758AF4FF08D
S31520001F500003FB60A3E0FB68002B07D14AF22403B1
S31520001F60C2F200031B681B68BB8394E0FB68412B0D
S31520001F7007D14AF22403C2F200031B681B687B8444
S31520001F8089E04AF22403C2F200031B681B689AB256
S31520001F904BF6CC33C2F200031A80FB6803F13F02F2
S31520001FA04DF6EC53C2F200031B789A4227D14BF62A
S31520001FB02353C2F200031B7818464AF22803C2F2C2
S31520001FC000031A684BF6CC33C2F200031B8899B281
S31520001FD04BF28C53C2F200034FF0640C0CFB00F062
S31520001FE0024423F812104AF22803C2F200031B68A7
S31520001FF003F101024AF22803C2F200031A60FB68C9
S3152000200003F13F024DF6D553C2F200031B789A42E4
S3152000201027D14BF62353C2F200031B7818464AF207
S315200020202803C2F200031A684BF6CC33C2F200032F
S315200020301B8899B24BF28C53C2F200034FF0640C0A
S315200020400CFB00F0024423F812104AF22803C2F2D5
S3152000205000031B6803F101024AF22803C2F20003BF
S315200020601A604BF62253C2F200031B7883F0010359
S31520002070DBB2002B0FD04BF6CC33C2F200031B8809
S315200020809BB21BB2002B06DA4BF62253C2F2000398
S315200020904FF001021A70FB6803F10103FB60FB6835
S315200020A0412B7FF758AF4BF61C53C2F200031B7827
S315200020B0002B00F050814BF62253C2F200031B780E
S315200020C0002B0DD14BF62453C2F200031B78002BB4
S315200020D014D04BF62453C2F200031B78012B0DD8E3
S315200020E04BF62453C2F200031B7803F10103DAB244
S315200020F04BF62453C2F200031A702CE14BF62453FC
S31520002100C2F200031B78002B00F01B814AF2280341
S31520002110C2F200034FF001021A6003E14BF623538B
S31520002120C2F200031B7819464AF22803C2F20003C2
S315200021301A684BF28C53C2F200034FF0640000FB86
S3152000214001F10A4433F812309BB21A464AF22C03A4
S31520002150C2F200031B7818464AF22803C2F2000393
S3152000216019684BF28C53C2F200034FF0640C0CFB3F
S3152000217000F0014433F811309BB2C3EB02024BF658
S315200021802453C2F200031B7803F1010392FBF3F3FD
S315200021909AB24BF62653C2F200031A804AF234034F
S315200021A0C2F200031B881A464AF22803C2F2000331
S315200021B01B689A4258D04FF00103FB604AE0FB6847
S315200021C0DAB24AF22C03C2F200031B781344DBB2C4
S315200021D003F00703FB75F87D4AF22803C2F20003D9
S315200021E01A684AF22C03C2F200031B789C464AF274
S315200021F02803C2F2000319684BF28C53C2F2000383
S315200022004FF0640E0EFB0CFC614433F8113099B28A
S31520002210FB681FFA83FC4BF62653C2F200031B8889
S3152000222003FB0CF39BB20B449BB26FEA43436FEA6A
S3152000223053439BB299B24BF28C53C2F200034FF038
S31520002240640C0CFB00F0024423F81210FB6803F127
S315200022500103FB604BF62453C2F200031B781A4697
S31520002260FB689A42ABDA51E04FF00103FB6044E091
S31520002270FB68DAB24AF22C03C2F200031B7813443D
S31520002280DBB203F00703FB75F87D4AF22803C2F29E
S3152000229000031A684AF22C03C2F200031B789C46FC
S315200022A04AF22803C2F2000319684BF28C53C2F299
S315200022B000034FF0640E0EFB0CFC614433F8113022
S315200022C099B2FB681FFA83FC4BF62653C2F2000331
S315200022D01B8803FB0CF39BB20B4499B24BF28C5335
S315200022E0C2F200034FF0640C0CFB00F0024423F80A
S315200022F01210FB6803F10103FB604BF62453C2F274
S3152000230000031B781A46FB689A42B1DA4AF2280380
S31520002310C2F200031B6803F101024AF22803C2F24B
S3152000232000031A604AF22803C2F200031B68022B3C
S315200023307FF7F4AE4BF62453C2F200034FF00002AF
S315200023401A704BF62353C2F200031A784AF22C0372
S31520002350C2F200031A703B8C03F00103DBB2002BA0
S3152000236000F056824BF61953C2F200031B78002B5D
S3152000237000F0508200F0AEFC4DE24BF65053C2F214
S3152000238000031B6803F48013002B00F044824BF6F5
S315200023905053C2F200031B6803F40013002B00F015
S315200023A03A824AF22803C2F200034FF001021A6071
S315200023B04BF62253C2F200034FF000021A704FF080
S315200023C00003FB6071E0FB68002B07D14AF214037F
S315200023D0C2F200031B681B68BB8362E0FB68412BCB
S315200023E007D14AF21403C2F200031B681B683B8420
S315200023F057E04AF21403C2F200031B681B689AB224
S315200024004BF6CC33C2F200031A80FB6803F1FF328D
S315200024104BF69843C2F200039B5C002B41D04BF64F
S315200024202253C2F200031B7883F00103DBB2002B98
S315200024300FD04BF6CC33C2F200031B889BB21BB2E3
S31520002440002B06DA4BF62253C2F200034FF00102AC
S315200024501A704BF62353C2F200031B7818464AF231
S315200024602803C2F200031A684BF6CC33C2F20003EB
S315200024701B8899B24BF28C53C2F200034FF0640CC6
S315200024800CFB00F0024423F812104AF22803C2F291
S3152000249000031B6803F101024AF22803C2F200037B
S315200024A01A60FB6803F10103FB60FB68412B8ADDA0
S315200024B04BF61C53C2F200031B78002B00F0F08071
S315200024C04BF62253C2F200031B78002B0DD14BF69C
S315200024D02453C2F200031B78002B14D04BF624534E
S315200024E0C2F200031B78012B0DD84BF62453C2F2FF
S315200024F000031B7803F10103DAB24BF62453C2F230
S3152000250000031A70CCE04BF62453C2F200031B786A
S31520002510002B00F0BB804AF22803C2F200034FF0E2
S3152000252001021A60A3E04BF62353C2F200031B7884
S3152000253019464AF22803C2F200031A684BF28C535A
S31520002540C2F200034FF0640000FB01F10A4433F8A5
S3152000255012309BB21A464AF22C03C2F200031B78B1
S3152000256018464AF22803C2F2000319684BF28C532C
S31520002570C2F200034FF0640C0CFB00F0014433F868
S3152000258011309BB2C3EB02024BF62453C2F2000376
S315200025901B7803F1010392FBF3F39AB24BF6265311
S315200025A0C2F200031A804FF00103FB604AE0FB6889
S315200025B0DAB24AF22C03C2F200031B781344DBB2D0
S315200025C003F00703FB75F87D4AF22803C2F20003E5
S315200025D01A684AF22C03C2F200031B789C464AF280
S315200025E02803C2F2000319684BF28C53C2F200038F
S315200025F04FF0640E0EFB0CFC614433F8113099B297
S31520002600FB681FFA83FC4BF62653C2F200031B8895
S3152000261003FB0CF39BB20B449BB26FEA43436FEA76
S3152000262053439BB299B24BF28C53C2F200034FF044
S31520002630640C0CFB00F0024423F81210FB6803F133
S315200026400103FB604BF62453C2F200031B781A46A3
S31520002650FB689A42ABDA4AF22803C2F200031B68EF
S3152000266003F101024AF22803C2F200031A604AF279
S315200026702803C2F200031B68602B7FF754AF4BF68A
S315200026802453C2F200034FF000021A704BF6235374
S31520002690C2F200031A784AF22C03C2F200031A701F
S315200026A03B8C03F00103DBB2002B00F08C804BF651
S315200026B01953C2F200031B78002B00F084804BF6DE
S315200026C02053C2F200031B8803F101039AB24BF692
S315200026D02053C2F200031A804AF22D03C2F20003ED
S315200026E01B7819464BF62053C2F200031A884BF288
S315200026F08C53C2F200034FF0C80000FB01F10B44DB
S3152000270003F1C6031A804AF22D03C2F200031B7896
S3152000271019464BF62053C2F200031A884BF28C530B
S31520002720C2F200034FF0C80000FB01F10B4403F195
S31520002730C4031A804AF22D03C2F200031B781946FD
S315200027404BF62053C2F200031A884BF28C53C2F286
S3152000275000034FF0C80000FB01F10B4403F1C20354
S315200027601A804DF68460C2F200004FF0000100F09E
S31520002770F1FD4BF28C53C2F200034AF22D02C2F253
S31520002780000212784FF0C80101FB02F202F10102A9
S3152000279013444FF0060200924DF68460C2F2000008
S315200027A019464FF0C7024BF62853C2F2000300F039
S315200027B09DFE4DF68460C2F200004FF0000100F04D
S315200027C04DFE00F087FA4BF62353C2F200031B7826
S315200027D003F10103DBB21A4602F007024BF623533C
S315200027E0C2F200031A704AF22D03C2F200031B78CC
S315200027F003F10103DBB21A4602F007024AF22D0367
S31520002800C2F200031A7006E000BF04E000BF02E037
S3152000281000BF00E000BF4BF64853C2F200031B681E
S31520002820002B00F064814BF65053C2F200031B6864
S3152000283003F08053002B00F0A8804FF00003FB60CC
S3152000284022E04AF21003C2F200031B681B68BB6237
S31520002850FB68012B05D1BB6A012B14BF0023012382
S31520002860FB62FB68022B01D1BB6A7B62FB68032BF0
S3152000287006D1BB6A03F00103FA6A02EA0303FB628C
S31520002880FB6803F10103FB60FB68032BD9DD7B6A40
S3152000289003F40043002B14BF00220122FB6A02EA44
S315200028A00303002B45D04BF64853C2F200031B68A6
S315200028B003F1FF324BF64853C2F200031A6040F28E
S315200028C009404FF00001FDF73FFE4BF64853C2F298
S315200028D000031B68002B3EF41FAA4AF20C03C2F227
S315200028E000031B684FF480321A604AF20803C2F2D2
S315200028F000031B684FF000021A604AF20403C2F27A
S3152000290000031B681A684BF65053C2F200031A6084
S315200029104BF65453C2F200034FF001021A704AF2EA
S315200029200403C2F200031B684FF480521A60FEF7BC
S31520002930FEB94AF20C03C2F200031B684FF4803240
S315200029401A604AF20803C2F200031B684FF0000225
S315200029501A604AF20403C2F200031B681A684BF697
S315200029605053C2F200031A604BF65453C2F20003CE
S315200029704FF001021A704AF20403C2F200031B68E8
S315200029804FF480521A60FEF7D2B94BF65053C2F27A
S3152000299000031B6803F00053002B3EF4BFA94FF041
S315200029A00003FB6022E04AF22003C2F200031B6808
S315200029B01B68BB62FB68012B05D1BB6A012B14BFC8
S315200029C000230123FB62FB68022B01D1BB6A7B62D9
S315200029D0FB68032B06D1BB6A03F00103FA6A02EAFD
S315200029E00303FB62FB6803F10103FB60FB68032B17
S315200029F0D9DD7B6A03F40043002B14BF0022012299
S31520002A00FB6A02EA0303002B45D04BF64853C2F279
S31520002A1000031B6803F1FF324BF64853C2F2000352
S31520002A201A6040F209404FF00101FDF78DFD4BF68B
S31520002A304853C2F200031B68002B3EF471A94AF2E8
S31520002A401C03C2F200031B684FF480321A604AF25C
S31520002A501803C2F200031B684FF000021A604AF204
S31520002A600403C2F200031B681A684BF65053C2F2E5
S31520002A7000031A604BF65453C2F200034FF00102D2
S31520002A801A704AF20403C2F200031B684FF4005284
S31520002A901A60FEF74CB94AF21C03C2F200031B6807
S31520002AA04FF480321A604AF21803C2F200031B6800
S31520002AB04FF000021A604AF20403C2F200031B68B8
S31520002AC01A684BF65053C2F200031A604BF6545361
S31520002AD0C2F200034FF001021A704AF20403C2F256
S31520002AE000031B684FF400521A60FEF720B94BF61C
S31520002AF05053C2F200031B6803F08053002B6DD0A5
S31520002B004BF6D033C2F200034FF47F421A804FF0C7
S31520002B100003FB6027E0FB68002B07D14AF2100375
S31520002B20C2F200031B681B68BB8318E0FB68032BFB
S31520002B3007D14AF21003C2F200031B681B68FB830D
S31520002B400DE0FA684AF21003C2F200031B681B6804
S31520002B5099B24BF6D033C2F2000323F81210FB6869
S31520002B6003F10103FB60FB68032BD4DDFB8B03F031
S31520002B700103DBB2002B31D0BB6903F00103DBB2CA
S31520002B80002B2BD04DF68460C2F200004FF00001DE
S31520002B9000F0E0FB4BF6D033C2F2000303F1010351
S31520002BA04FF0060200924DF68460C2F200001946EC
S31520002BB04FF0C7024BF62853C2F2000300F096FCF2
S31520002BC04DF68460C2F200004FF0000100F046FC92
S31520002BD000F080F8BB6923F00103BB614BF650532C
S31520002BE0C2F200031B6803F00053002B3EF49AA8A0
S31520002BF04BF6D033C2F200034FF47F421A804FF0D7
S31520002C000003FB6027E0FB68002B07D14AF2200374
S31520002C10C2F200031B681B68BB8318E0FB68032B0A
S31520002C2007D14AF22003C2F200031B681B68FB830C
S31520002C300DE0FA684AF22003C2F200031B681B6803
S31520002C4099B24BF6D033C2F2000323F81210FB6878
S31520002C5003F10103FB60FB68032BD4DDFB8B03F040
S31520002C600103DBB2002B3EF45FA8BB6903F002032D
S31520002C70002B3EF45BA84DF68460C2F200004FF0B4
S31520002C80000100F067FB4BF6D033C2F2000303F1DC
S31520002C9001034FF0060200924DF68460C2F2000056
S31520002CA019464FF0C7024BF62853C2F2000300F034
S31520002CB01DFC4DF68460C2F200004FF0000100F0CA
S31520002CC0CDFB00F007F8BB6923F00203BB61FEF7DA
S31520002CD02EB800BF80B483B000AF4BF63053C2F29B
S31520002CE000034FF000021A604BF62853C2F200038D
S31520002CF01B78AA2B3AD14FF000037B6033E04BF2CE
S31520002D008453C2F200031B6803F1010303F03F0260
S31520002D104BF28853C2F200031B689A421FD04BF233
S31520002D208453C2F200031A687B6803F101014BF653
S31520002D302853C2F20003595C4BF24453C2F20003FB
S31520002D4099544BF28453C2F200031B6803F101032A
S31520002D5003F03F024BF28453C2F200031A607B68F1
S31520002D6003F101037B607B68042BC8DD07F10C07A8
S31520002D70BD4680BC704700BF80B500AF4FF0050050
S31520002D8001F0DAFBFDF7B4FB48F28040C0F21E00EA
S31520002D90FDF7BCFB80BD00BF80B500AFFDF7C6FBCD
S31520002DA04BF61853C2F200034FF001021A7080BD91
S31520002DB080B483B000AF7860FEE700BF80B485B0F2
S31520002DC000AFF860B9607A603B604FF000031846A8
S31520002DD007F11407BD4680BC704700BF80B586B09A
S31520002DE000AF78604BF69853C2F200031B68002BA5
S31520002DF008D14BF69853C2F200034EF20002C2F2FB
S31520002E0000021A604BF69853C2F200031B68FB605F
S31520002E10EFF308833B614BF69853C2F200031A681E
S31520002E203B699A4219D24BF69853C2F200031A68AC
S31520002E307B681A443B699A422ED94FF000004FF026
S31520002E40010149F6A872C2F200024FF01903FFF7FA
S31520002E50B5FF4FF00100FFF7ABFF4FF20003C2F2C0
S31520002E6000037B614BF69853C2F200031A687B6815
S31520002E701A447B699A4210D94FF000004FF00101A5
S31520002E8049F6C472C2F200024FF01903FFF796FF0B
S31520002E904FF00100FFF78CFF00BF4BF69853C2F2AC
S31520002EA000031A687B681A444BF69853C2F2000353
S31520002EB01A60FB68184607F11807BD4680BD00BF9B
S31520002EC080B483B000AF0346FB714EF20013CEF2FE
S31520002ED0000397F907204FEA5212F97901F01F01F2
S31520002EE04FF0010000FA01F143F8221007F10C0718
S31520002EF0BD4680BC704700BF80B483B000AF034698
S31520002F00FB714EF20013CEF2000397F907204FEA29
S31520002F105212F97901F01F014FF0010000FA01F178
S31520002F2002F1200243F8221007F10C07BD4680BCAF
S31520002F30704700BF80B483B000AF0346FB714EF2EA
S31520002F400013CEF2000397F907204FEA5212F979BF
S31520002F5001F01F014FF0010000FA01F102F16002B9
S31520002F6043F8221007F10C07BD4680BC704700BF0E
S31520002F7080B584B000AF78607A684DF68463C2F27B
S31520002F8000039A4207D07A684DF60063C2F2000326
S31520002F909A4200D000BE7B681B795BB21846FFF7C9
S31520002FA0ABFF78684FF000014FF0840201F05CFE21
S31520002FB07B684FF001025A624FF00003FB810DE05F
S31520002FC0FB897A6803F106034FEAC30313444FF0E3
S31520002FD0FF325A60FB8903F10103FB81FB89072B32
S31520002FE0EED97A684DF68463C2F200039A4226D15E
S31520002FF07A6841F20003C4F2000313607B684FF045
S3152000300002021A7148F20003C4F2030348F20002D6
S31520003010C4F20302926C42F400729A644FF00200EA
S31520003020FFF788FF48F20003C4F2030348F20002C8
S31520003030C4F20302926C22F400729A6425E07A6844
S3152000304041F20003C4F2010313607B684FF00302D0
S315200030501A7148F20003C4F2030348F20002C4F2D4
S315200030600302926C42F480629A644FF00300FFF7E9
S3152000307061FF48F20003C4F2030348F20002C4F2DF
S315200030800302926C22F480629A647B681B687A68D9
S315200030901268126822F000421A6007F11007BD4636
S315200030A080BD00BF80B58AB000AF78607B681B68A2
S315200030B01B68FB607B681B689B693B617B681B68A0
S315200030C05B687B617B681B689B6ABB617B681B684E
S315200030D01B6BFB617B681B685B6B3B627B681B68B9
S315200030E0DB697B627A684DF68463C2F200039A42FA
S315200030F02ED17A6841F20003C4F2000313607B6884
S315200031004FF002021A7148F20003C4F2030348F298
S315200031100002C4F20302926C42F400729A644FF0E9
S315200031200200FFF707FF48F20003C4F2030348F248
S315200031300002C4F20302926C22F400729A647B6845
S315200031401B687A681268126822F000421A602DE025
S315200031507A6841F20003C4F2010313607B684FF0E2
S3152000316003021A7148F20003C4F2030348F2000274
S31520003170C4F20302926C42F480629A644FF0030018
S31520003180FFF7D8FE48F20003C4F2030348F2000218
S31520003190C4F20302926C22F480629A647B681B68F4
S315200031A07A681268126822F000421A60FB6823F0DF
S315200031B00103FB607B681B68FA681A607B681B68E2
S315200031C03A699A617B681B687A695A607B681B68D2
S315200031D07A681268126842F001021A607B681B68DE
S315200031E0BA699A627B681B68FA691A637B681B68EE
S315200031F03A6A5A637B681B687A6ADA6107F128079C
S31520003200BD4680BD80B586B000AFF8607A603B6071
S315200032100B46FB72FA684DF68463C2F200039A42AB
S3152000322007D0FA684DF60063C2F200039A4200D036
S3152000323000BEFB7A072B00D900BE97F82030202B42
S3152000324000D900BE3B68012B00D800BE3B68B3F511
S31520003250007F00D900BE3B6803F00103002B00D09D
S3152000326000BEFB681B795BB21846FFF745FEFB687C
S315200032704FF0000283F88020FB681B68FA6812680A
S31520003280126822F001021A60FB681B68FA6812684D
S31520003290126842F002021A60FB681B68FA6812681C
S315200032A0126842F001021A60FB7A072B47D87B6826
S315200032B0002B0BD07B68B3F1007F07D07B68B3F17E
S315200032C0807F03D07B68B3F1407F0FD1FA7A79688B
S315200032D040F20213C3F2004341EA0303F96802F104
S315200032E006024FEAC2020A4453600EE0FA7A79686F
S315200032F040F20213C3F2000341EA0303F96802F124
S3152000330006024FEAC2020A445360FB7AFA6803F1C6
S3152000331006034FEAC303134497F820201A723B682A
S315200033204FEA530303F1FF337B61FB7A7A69D2B20A
S31520003330F96803F106034FEAC3030B445A72FB688C
S315200033401B795BB21846FFF7BBFD07F11807BD4690
S3152000335080BD00BF80B584B000AF78600B46FB709F
S315200033607A684DF68463C2F200039A4207D07A68DF
S315200033704DF60063C2F200039A4200D000BE7B687D
S315200033801B681B6803F00203002B00D100BEFB78EC
S315200033907A6803F106034FEAC30313445B68B3F16B
S315200033A0FF3F00D100BE7B681B795BB21846FFF752
S315200033B0A3FD7B681B689B6803F00403FB60FB6826
S315200033C0002B02D07868FFF76DFE7B681B687A6851
S315200033D01268126822F001021A607B681A68FB786C
S315200033E0796803F106034FEAC3030B445B68136055
S315200033F07B681A68FB78796803F106034FEAC303F2
S315200034000B445B7A93617B681A68FB78796803F1D1
S3152000341006034FEAC3030B441B7A53607B681B6881
S315200034207A681268126842F001021A607B681B688B
S315200034307A681268D169FA784FF0010000FA02F230
S3152000344041EA0202DA617B681B795BB21846FFF714
S3152000345037FD07F11007BD4680BD00BF80B584B09B
S3152000346000AF78600B46FB707A684DF68463C2F233
S3152000347000039A4207D07A684DF60063C2F2000331
S315200034809A4200D000BE7B681B681B6803F00203CB
S31520003490002B00D100BE7B681B795BB21846FFF774
S315200034A02BFD7B681B689B6803F00403FB60FB68AD
S315200034B0002B02D07868FFF7F5FD7B681B687A68D9
S315200034C01268D169FA784FF0010000FA02F26FEA29
S315200034D0020201EA0202DA617B681B795BB21846B6
S315200034E0FFF7EEFC07F11007BD4680BD80B58EB014
S315200034F000AFF860B9603B601346FB804FF00003D5
S315200035007B834FF00003FB84FA684DF68463C2F296
S3152000351000039A4207D0FA684DF60063C2F2000310
S315200035209A4200D000BEFB681B681B6803F00203AA
S31520003530002B00D100BEFA88B7F840301344FB8632
S31520003540FB8E002B03D14FF001033B6201E0FB8E83
S315200035503B62FB681B68FA681268D26A42F00C026A
S31520003560DA62FB681B689B6803F00403FB62FB6A54
S31520003570002B02D0F868FFF795FDFB681B68FA68F8
S315200035801268126822F001021A60FB681968FB684B
S315200035901B681B6840F2FF02CFF6007203EA0202A4
S315200035A03B6A4FEA03204FF60073C0F2FF0300EA9E
S315200035B0030342EA03030B60FB681B684FF0080213
S315200035C05A60FB681B68FA681268126842F00102AA
S315200035D01A60FB681B689B6803F040033B6309E0A5
S315200035E0FB681B681B697B61FB681B689B6803F093
S315200035F040033B633B6B002BF2D04FF00003BB83B1
S315200036004FF00003FB83BA8BFB889A420FD2FB68EC
S315200036101B68B98BBA680A4412785A61BB8B03F1CE
S315200036200103BB83FB8C03F10103FB846AE0BA8BA5
S31520003630FB8E9A4266D2FB681B684FF000025A61E5
S31520003640BB8B03F10103BB83FB8C03F10103FB84DA
S3152000365058E0FB681B689B6803F040033B633B6BA9
S31520003660002B1ED1FB681B681B697B617A8BFB884C
S315200036709A420ED3FA8BB7F840309A4205D2FA8B8B
S315200036803B6813447A69D2B21A70FB8B03F10103AB
S31520003690FB837B8B03F101037B83FB8C03F1FF33DD
S315200036A0FB84FB681B689B6803F48073BB62BB6A60
S315200036B0002B27D1FB8C032B24D8BA8BFB889A426C
S315200036C00FD2FB681B68B98BBA680A4412785A6114
S315200036D0BB8B03F10103BB83FB8C03F10103FB844A
S315200036E010E0BA8BFB8E9A420CD2FB681B684FF017
S315200036F000025A61BB8B03F10103BB83FB8C03F1F0
S315200037000103FB847A8BFB8E9A42A2D307F13807FA
S31520003710BD4680BD80B485B000AF78604FF0000311
S31520003720FB600EE07B681B687A6891687A6812698C
S315200037300A4412785A617B681B6903F101027B688F
S315200037401A617B681B689B6803F48073002B05D184
S315200037507B681A697B68DB689A42E3D37B681A69BF
S315200037607B68DB689A421CD30EE07B681B687A680C
S3152000377051697A68D2690A4412785A617B68DB6992
S3152000378003F101027B68DA617B681B689B6803F49E
S315200037908073002B05D17B68DA697B689B699A4226
S315200037A0E3D37B685B6A002B1FD07B681A697B6832
S315200037B0DB689A4219D37B68DA697B689B699A42EF
S315200037C013D308E07B681B684FF000025A61FB6840
S315200037D003F10103FB607B681B689B6803F480731D
S315200037E0002B02D1FB681F2BECD907F11407BD462D
S315200037F080BC704780B584B000AF78607B6893F852
S315200038008030022B15D10CE07B681B681B69FB609E
S315200038107B685B6F002B04D07B685B6FFA68104671
S3152000382098477B681B689B6803F04003002BEBD00E
S3152000383032E07B6893F88030012B25D117E07B6836
S315200038401B681B69FB607B681A6B7B68DB6A9A4284
S3152000385007D27B689A6A7B681B6B1344FA68D2B2DC
S315200038601A707B681B6B03F101027B681A637B6805
S315200038701B689B6803F04003002BE0D00CE07B68BC
S315200038801B681B69FB6000E000BF7B681B689B68A8
S3152000389003F04003002BF2D007F11007BD4680BD90
S315200038A080B586B000AF78607B681B6803F1200383
S315200038B03B617A684DF68463C2F200039A4207D0D0
S315200038C07A684DF60063C2F200039A4200D000BE29
S315200038D03B691B6803F00203002B52D07B6893F8E8
S315200038E08030022B15D10CE07B681B681B69FB60BE
S315200038F07B685B6F002B04D07B685B6FFA68104691
S3152000390098477B681B689B6803F04003002BEBD02D
S3152000391032E07B6893F88030012B25D117E07B6855
S315200039201B681B69FB607B681A6B7B68DB6A9A42A3
S3152000393007D27B689A6A7B681B6B1344FA68D2B2FB
S315200039401A707B681B6B03F101027B681A637B6824
S315200039501B689B6803F04003002BE0D00CE07B68DB
S315200039601B681B69FB6000E000BF7B681B689B68C7
S3152000397003F04003002BF2D07B681B684FF0020255
S31520003980DA603B691B6803F00103DBB2002B12D01F
S315200039907B6893F88030022B05D17B681B687A6898
S315200039A0926F5A6102E07868FFF7B4FE7B681B6865
S315200039B04FF00102DA603B691B6803F01003002B0D
S315200039C023D07868FFF716FF7B681B6A002B0BD085
S315200039D07B681B6A7A68916A7A68126B0846114678
S315200039E098477868FFF796FE7B684FF001025A6287
S315200039F07B681B687A681268926A22F010029A62C3
S31520003A007B681B684FF01002DA603B691B6803F085
S31520003A100403002B0FD07B681B687A681268D26A71
S31520003A2042F00402DA627868FFF73CFB7B681B6889
S31520003A304FF00402DA603B691B6803F00803002B91
S31520003A4031D07B681B687A681268D26A42F0080215
S31520003A50DA627B6893F88030022B13D17B681A6870
S31520003A607B681B68196840F2FF03CFF6007301EAF2
S31520003A70030343F4807313607B681B687A68926F34
S31520003A805A610BE07B6893F88030012B06D17B6866
S31520003A904FF000021A617868FFF73CFE7B681B68CE
S31520003AA04FF00802DA603B691B6803F02003002B05
S31520003AB049D07868FFF79EFE7B681B6B7B617B682D
S31520003AC01B6A002B1CD07B684FF000025A627B6871
S31520003AD04FF000025A617B684FF000029A617B68C2
S31520003AE04FF00002DA617B681B684FF01002DA6043
S31520003AF07B681B687A681268926A42F010029A62A2
S31520003B007B684FF000021A617B681B687A6812682E
S31520003B10D26A42F00C02DA627868FFF7FBFD7B6816
S31520003B204FF000021A637B68DB6F002B06D07B68A0
S31520003B30DB6F7A68926A1046796998477B681B68BA
S31520003B404FF02002DA6007F11807BD4680BD00BF9E
S31520003B50684620F007018D4689B500AF4DF6846092
S31520003B60C2F20000FFF79CFEBD46BDE889408546AF
S31520003B70704700BF684620F007018D4689B500AF23
S31520003B804DF60060C2F20000FFF78AFEBD46BDE892
S31520003B9089408546704700BF80B483B000AF034696
S31520003BA0FB714EF20013CEF2000397F907204FEA7D
S31520003BB05212F97901F01F014FF0010000FA01F1CC
S31520003BC002F1200243F8221007F10C07BD4680BC03
S31520003BD0704700BF80B483B000AF78607B6893F8ED
S31520003BE06830002B04D07B689B694FF001029A60F5
S31520003BF007F10C07BD4680BC704700BF80B584B076
S31520003C0000AF78604FF00103BB737A684DF60873F6
S31520003C10C2F200039A4207D07A684DF67C73C2F24C
S31520003C2000039A4200D000BE7B685B691B79FB7259
S31520003C30FB7ADBB2A3F10803D02B00F21C8401A28D
S31520003C4052F823F0893F0020774400207744002053
S31520003C5077440020774400207744002077440020D2
S31520003C6077440020893F00207744002077440020B5
S31520003C7077440020774400207744002077440020B2
S31520003C80774400202D4000207744002077440020F0
S31520003C907744002077440020774400207744002092
S31520003CA077440020094000207744002077440020F4
S31520003CB07744002077440020774400207744002072
S31520003CC0774400202D4000207744002077440020B0
S31520003CD07744002077440020774400207744002052
S31520003CE077440020C14000207744002077440020FC
S31520003CF07744002077440020774400207744002032
S31520003D0077440020FD3F00207744002077440020A0
S31520003D107744002077440020774400207744002011
S31520003D2077440020E5400020774400207744002097
S31520003D3077440020774400207744002077440020F1
S31520003D407744002035410020774400207744002026
S31520003D5077440020774400207744002077440020D1
S31520003D6077440020594100207744002077440020E2
S31520003D7077440020774400207744002077440020B1
S31520003D807744002093410020774400207744002088
S31520003D907744002077440020774400207744002091
S31520003DA077440020354200207744002077440020C5
S31520003DB07744002077440020774400207744002071
S31520003DC0774400202B4200207744002077440020AF
S31520003DD07744002077440020774400207744002051
S31520003DE07744002035420020774400207744002085
S31520003DF07744002077440020774400207744002031
S31520003E00774400202B42002077440020774400206E
S31520003E107744002077440020774400207744002010
S31520003E207744002077420020774400207744002002
S31520003E3077440020774400207744002077440020F0
S31520003E4077440020F7410020774400207744002063
S31520003E5077440020774400207744002077440020D0
S31520003E6077440020774200207744002077440020C2
S31520003E7077440020774400207744002077440020B0
S31520003E8077440020F7410020774400207744002023
S31520003E907744002077440020774400207744002090
S31520003EA077440020D3420020774400207744002026
S31520003EB07744002077440020774400207744002070
S31520003EC077440020AB43002077440020774400202D
S31520003ED07744002077440020774400207744002050
S31520003EE077440020AB43002077440020774400200D
S31520003EF07744002077440020774400207744002030
S31520003F0077440020AB4300207744002077440020EC
S31520003F10774400207744002077440020774400200F
S31520003F20774400203D440020774400207744002039
S31520003F3077440020774400207744002077440020EF
S31520003F40774400203D440020774400207744002019
S31520003F5077440020774400207744002077440020CF
S31520003F6077440020774400207744002077440020BF
S31520003F7077440020774400207744002077440020AF
S31520003F80774400207D4300207B689B694FF0000228
S31520003F905A617B685B697A685268D2B21A727B680A
S31520003FA09B697A68D26AC3F800217B68DB6A002B9A
S31520003FB004D17B684FF000029A6207E07B68DB6AD7
S31520003FC0012B03D17B684FF000029A637B6893F83C
S31520003FD07130002B04D07B684FF0000283F87120EB
S31520003FE07B681A7A7B6893F872309A4200F067826F
S31520003FF07B6893F872207B681A7269E27B689B69FA
S315200040004FF001025A6163E27B689B694FF001021F
S315200040101A617B684FF0020283F83C207B684FF0E0
S3152000402000021A727868FFF7D5FD51E27B689A6A1A
S315200040307B685B6A9A420DD27B685A697B68196AEB
S315200040407B689B6A19440978117203F101027B6827
S315200040509A623DE27B681B7A032B09D17B684FF07D
S315200040600102DA627B689B694FF001025A612FE2F6
S315200040707B684FF000021A727B681B7C03F00103F9
S315200040807B737B687A7B83F870207B7B002B08D13F
S315200040907B689B694FF001021A617868FFF79AFDE9
S315200040A008E07B685B7C5BB21846FFF775FD4FF036
S315200040B00003BB737B684FF0000283F83C2007E2C5
S315200040C07B689B694FF001021A617B684FF0020200
S315200040D083F83C207B684FF000021A727868FFF75D
S315200040E079FDF5E17B685B6B012B05D97B689B69C4
S315200040F04FF001029A60EBE17B685B6B012B05D1E7
S315200041007B689B694FF000029A60E1E17B689B69BE
S315200041104FF001029A607B689B694FF001021A6199
S315200041207B684FF0000283F83C207B684FF000024A
S315200041301A72CDE17B689B694FF001021A617B6898
S315200041404FF0020283F83C207B684FF000021A727F
S315200041507868FFF73FFDBBE17B681A6B7B689B6B3A
S315200041601A4479684969097AC9B2117003F10102C2
S315200041707B689A637B689A6B7B685B6B03F1FF3382
S315200041809A42C0F09E817B689B694FF000029A603C
S315200041909EE17B681A6B7B689B6B13447A68526935
S315200041A0127AD2B21A707B681B7C03F001037B73F0
S315200041B07B687A7B83F870207B7B002B08D17B6819
S315200041C09B694FF001021A617868FFF703FD08E04A
S315200041D07B685B7C5BB21846FFF7DEFC4FF0000382
S315200041E0BB737B684FF000021A727B684FF00002A7
S315200041F083F83C206CE17B689B694FF001029A6052
S315200042007B684FF000021A727B684FF0000283F839
S315200042105C207B6893F87130002B00F054817B681A
S315200042209B694FF001025A6152E17B684FF001020F
S3152000423083F871207B684FF004021A727B684FF076
S3152000424000029A657B684FF00002DA607B689B6902
S315200042505B69002B09D07B689B694FF000025A618D
S315200042607B684FF0010283F871207B684FF00102D2
S3152000427083F85C202CE17B681B6D002B1CD07B68AF
S315200042809A6D7B685B6D9A4216D27B685B691B7A56
S315200042903B737B681A6D7B689B6D1A44397B117062
S315200042A003F101027B689A657B68DB684FEA03228B
S315200042B03B7B1A447B68DA607B689A6D7B685B6D12
S315200042C09A42C0F002817B689B694FF000029A6097
S315200042D0FEE07B681B7A042B35D17B689A6D7B6860
S315200042E01B6E9A4203D17B68DA687B68DA647B6846
S315200042F05B6E002B21D07B685B6E7A68116D7A68C5
S31520004300926D92B2786898470346FB73FB7B002B2D
S3152000431008D17868FFF75EFC7B689B694FF0010245
S315200043209A6017E07B689B694FF000029A607B6871
S315200043304FF0000283F868200CE07B689B694FF001
S3152000434001029A6006E07B684FF00002DA64786822
S31520004350FFF740FC7B684FF0000283F85C207B6807
S3152000436093F87130002B04D07B689B694FF00102D3
S315200043705A617B684FF000021A72A9E07B684FF001
S3152000438000021A727B684FF00002DA647B6893F8A9
S315200043905C30DBB2012B04D17B684FF0020283F83C
S315200043A05C207868FFF716FC92E0FB7ADBB2A82B3C
S315200043B01BD17B684FF005021A727B684FF0000212
S315200043C0DA607B684FF0010283F85C207B689B698A
S315200043D05B69002B09D07B689B694FF000025A610C
S315200043E07B684FF0010283F871207B68DA6C7B686A
S315200043F09B6C9A4205D37B685B694FF0FF321A7239
S315200044000CE07B685A697B68596C7B68DB6C1944C5
S315200044100978117203F101027B68DA647B68DA6C31
S315200044207B689B6C9A4252D37B689B694FF0000253
S315200044309A607B684FF00002DA6449E07B684FF0AF
S315200044400002DA647B689B694FF001029A607B6800
S315200044504FF0000283F85C207B6893F87130002BC4
S3152000446004D07B689B694FF001025A617B684FF04C
S3152000447000021A722CE07B689B694FF000025A6199
S315200044807B684FF000021A727B684FF00002DA64F4
S315200044907B6893F83C30DBB2012B04D17B684FF06C
S315200044A0020283F83C207B6893F85C30DBB2012B58
S315200044B00ED17B684FF0020283F85C2008E000BF33
S315200044C006E000BF04E000BF02E000BF00E000BF3E
S315200044D0BB7B002B04D07B689B694FF00002DA601F
S315200044E07B685B691B79FB7207F11007BD4680BDAF
S315200044F0684620F007018D4689B500AF4DF6087055
S31520004500C2F20000FFF77AFBBD46BDE8894085462A
S31520004510704700BF684620F007018D4689B500AF79
S315200045204DF67C70C2F20000FFF768FBBD46BDE881
S3152000453089408546704700BF80B485B000AF0346EA
S31520004540FB71FB79FB60FB681F2B00D900BEFB6863
S315200045501F2B0AD843F20003C4F20103FA684FF076
S31520004560010101FA02F2C3F88020BFF34F8F07F151
S315200045701407BD4680BC704780B500AF00F038F800
S315200045804EF60053CEF200034EF60052CEF2000253
S31520004590526942F400725A61FBF74CFF80BD00BF9E
S315200045A080B483B000AF48F20003C4F20303D3F80B
S315200045B04C317B607A684FF602039A4206D04FF65A
S315200045C00203C0F201039A4204D007E04FF0010330
S315200045D03B6006E04FF002033B6002E04FF0000331
S315200045E03B603B68184607F10C07BD4680BC704708
S315200045F080B582B000AFFFF7D3FF03467B607B68B0
S31520004600012B01D100F004F807F10807BD4680BD53
S3152000461080B400AF48F20003C4F2030348F200025C
S31520004620C4F20302D2F8982042F48072C3F898208C
S3152000463048F20003C4F2030348F20002C4F2030264
S31520004640D2F8982022F08062C3F89820BD4680BC1C
S31520004650704700BF70B549F6F47649F6F475C2F294
S315200046600006C2F20005761BB61006D0002455F8C7
S31520004670243001349847A642F9D849F6F47549F60C
S31520004680F876C2F20005C2F20006761B05F0A6FCFB
S31520004690B61006D0002455F8243001349847A64297
S315200046A0F9D870BD4BF23C030146C2F200031868EC
S315200046B000F036BC4BF23C030146C2F200031868F8
S315200046C000F000B82DE9F04F01F10B04162C83B051
S315200046D006462FD8002310248C422CBF194643F0BF
S315200046E00101002930D1304600F028FBB4F5FC7FCB
S315200046F02ED24FEAD40E4BF23015C2F2000505EB4E
S31520004700CE02D368934200F006825A6803F1080568
S31520004710D968304622F0030C9A6863445C688A6044
S3152000472044F00104D1605C6000F00AFB284603B027
S31520004730BDE8F08F24F00704E30F8C422CBF194606
S3152000474043F001010029CED00C2300253360EDE78C
S315200047505FEA542E04BF4FEAD40E4FEACE0040F053
S3152000476090804BF23015C2F200052818C368984293
S3152000477006D10DE0002A80F26F81DB68984207D0CF
S31520004780596821F003010A1B0F2AF3DD0EF1FF3EC3
S315200047900EF1010E4BF23017C2F2000707F10801A5
S315200047A08B68994208BF7A6826D05A6822F0030C93
S315200047B0C4EB0C020F2A00F39481002AC960896099
S315200047C080F29980BCF5007F80F065814FEADC0C91
S315200047D04FF0010A7A6807EBCC004FEAAC0C0AFAD4
S315200047E00CFCD860D0F808804CEA02027A60C3F844
S315200047F00880C8F80C3083604FF0010C4FEAAE03F6
S315200048000CFA03FC944500F2828012EA0C0F08D1C0
S315200048102EF0030E4FEA4C0C0EF1040E12EA0C0F8A
S31520004820F8D007EBCE09F246C846D8F80C309845A2
S3152000483007D168E1002A80F27881DB68984500F08C
S315200048406281586820F00300021B0F2AF2DD1D4604
S315200048501F19D3F80CC044F0010E55F8084F304606
S31520004860BA5042F00102C3F804E0CCF80840C4F87C
S315200048700CC08F60CF607A60B960F96000F060FA92
S3152000488054E7BEF1040F9EBF4FEA941E0EF1380E78
S315200048904FEACE007FF665AFBEF1140F9CBF0EF136
S315200048A05B0E4FEACE007FF65CAFBEF1540F9EBF83
S315200048B04FEA143E0EF16E0E4FEACE007FF651AF50
S315200048C0BEF5AA7F9EBF4FEAD43E0EF1770E4FEA81
S315200048D0CE007FF646AF40F254539E4595BF4FEA31
S315200048E0944E4FF47C700EF17C0E4FF07E0E98BFE6
S315200048F04FEACE0035E703EB0C0203F108053046FC
S31520004900536843F00103536000F01AFA0EE7D7F814
S315200049100880D8F8043023F00309C4EB09024C457B
S3152000492094BF002301230F2AD8BF43F00103002B95
S3152000493000F0A1804BF69C5BD5F80824C2F2000B50
S31520004940DBF8003010331B19B2F1FF3F06D003F518
S315200049507E631F3323F47E6323F01F0319463046FC
S31520004960019300F075FA019BB0F1FF3F824600F0FB
S31520004970F48008EB0901814200F2EC80DBF8042088
S315200049809A185145CBF8042000F04581D5F80854F3
S315200049904BF23010C2F20000B5F1FF3F08BFC0F85D
S315200049A008A403D05244511ACBF804101AF0070574
S315200049B0304617BFC5F108054FF48055AA4405F5C2
S315200049C0805553441B051B0DED1A294600F040FA6D
S315200049D0B0F1FF3F00F02C81CAEB0001491941F0EC
S315200049E00101DBF804204BF69C53C7F808A0C2F25D
S315200049F00003AA18B845CBF80420CAF8041017D02B
S31520004A00B9F10F0F40F2DF80A9F10C01052521F045
S31520004A10070108EB01000F2985604560D8F80400DE
S31520004A2000F0010041EA0000C8F8040000F2AC8062
S31520004A30D0464BF69C53DBF82C10C2F200038A4278
S31520004A40DBF8301088BFDA624BF69C53C2F20003C3
S31520004A508A4288BF1A6382E05C189A68D968304611
S31520004A60666803F108058A6046F00103D160636039
S31520004A7000F066F95AE608EB040342F0010244F01E
S31520004A8001043046C8F8044008F108055A60BB60A6
S31520004A9000F056F94AE64FEA5C22042A54D9142A31
S31520004AA000F289805B324FEAC208A8444BF23017E5
S31520004AB0C2F20007D8F80800404503D16FE08068AD
S31520004AC0804504D0426822F003029445F7D3D0F8FB
S31520004AD00CC0C3F80CC098607A68C360CCF8083064
S31520004AE08AE61F19304644F00104CF605C6003F16A
S31520004AF00805BA5042F001028F607A60B960F96009
S31520004B0000F01EF912E60AF1010A1AF0030F5FD02F
S31520004B1003F1080889E603F10802D3689A4208BF20
S31520004B200EF1020E3FF436AEEFE51D461918DA688F
S31520004B30304655F8083F4C68936044F00104DA602B
S31520004B404C6000F0FDF8F1E54FEA9C1238324FEA4E
S31520004B50C208AAE7B8453FF411AFD7F80880D8F8BD
S31520004B60042022F00302944294BF00230123121B47
S31520004B700F2AD8BF43F00103002B3FF47CAF304609
S31520004B80002500F0DDF8D1E508F108013046019353
S31520004B9000F0C6F9019BD7F808805A6849E74FF01C
S31520004BA0010AD7F80480921084460AFA02F248EAEB
S31520004BB002027A608DE7542A24D84FEA1C326E32DC
S31520004BC04FEAC20871E70123D046CAF80430C6E787
S31520004BD04A461EF0030F13460EF1FF3E33D053F81C
S31520004BE008299A42F5D07B684FEA4C0C9C453FF643
S31520004BF08EAEBCF1000F3FF48AAE1CEA030F27D01D
S31520004C00D6460EE6B2F5AA7F15D84FEADC327732C1
S31520004C104FEAC20849E70805000D00287FF4B6AE22
S31520004C20D7F808804B4443F00103C8F8043000E766
S31520004C3001210025D5E640F2545082420DD94FF489
S31520004C407C787E2231E77B6823EA0C037B60CBE706
S31520004C504FEA4C0C0AF1040ACFE74FEA9C427C3219
S31520004C604FEAC20821E700BF032AC9B230B407D8E9
S31520004C7022B10023C15401339342FBD130BC70478B
S31520004C8000EB020C034601E003F8011C03F00304C9
S31520004C901A460133002CF7D14FF00133C2EB0C0436
S31520004CA003FB01F31FE042F8403C42F83C3C42F84B
S31520004CB0383C42F8343C42F8303C42F82C3C42F82E
S31520004CC0283C42F8243C42F8203C42F81C3C42F85E
S31520004CD0183C42F8143C42F8103C42F80C3C42F88E
S31520004CE0083C42F8043C154640323F2CA4F14004CF
S31520004CF0D9DC2A46C5EB0C0407E042F8103C42F802
S31520004D000C3C42F8083C42F8043C154610320F2C65
S31520004D10A4F11004F1DC2A46C5EB0C0501E042F8AB
S31520004D20043C14460432032DA5F10405F7DC01E00A
S31520004D3004F8011B6445FBD3A0E700BF704700BF02
S31520004D40704700BF0000000038B54BF23C04C2F2A9
S31520004D5000042568A86BD8B104694FF22D4C45692B
S31520004D60C5F6510C47F62D710122C4F69541002354
S31520004D7004FB0CFC05FB01CCA1FB04451219654480
S31520004D8043EB0503C0E9042323F00041084638BD60
S31520004D901820FFF78FFC246813A3D3E900234FF2D2
S31520004DA02D41C5F6510141F2342CA8634AF6CD3582
S31520004DB0A06B43F20E3445804DF6EC6504804EF22E
S31520004DC06D64A0F804C04FF0050CC4804FF00B04AE
S31520004DD00581002584810124A0F80AC0C0E9044584
S31520004DE0C0E90423084638BD2E7F954C2DF4515832
S31520004DF070B54BF23C04C2F2000406462568AB6B44
S31520004E001BB100221E615A6170BD1820FFF752FCAB
S31520004E1023684AF6CD3141F23422A86343F20E309C
S31520004E209B6B18804EF26D6059804DF6EC619A802E
S31520004E304FF00502D8804FF00B00198100215A81CE
S31520004E40002298810120C3E904011E615A6170BDC8
S31520004E5038B54DF6F074C2F2000405460846002324
S31520004E602360FDF7BBFFB0F1FF3F00D038BD2368BC
S31520004E70002BFBD02B6038BDF8B54BF23014C2F2B4
S31520004E8000040F460546FFF759FFA3685E6826F023
S31520004E90030606F57E630F33DF1B3F0B013F3F03FF
S31520004EA0B7F5805F07DB00212846FFF7D1FFA3680F
S31520004EB0F318834204D02846FFF742FF0020F8BDAE
S31520004EC079422846FFF7C4FFB0F1FF3F10D0A26811
S31520004ED04BF6A053C2F20003F61B46F00106284605
S31520004EE056601A68D71B1F60FFF72AFF0120F8BDFE
S31520004EF000212846FFF7ACFFA368C21A0F2ADADD85
S31520004F004BF238544BF6A051C2F20004C2F2000113
S31520004F1042F001022468001B08605A60CBE700BFFC
S31520004F202DE9F04105460C46002900F08880FFF760
S31520004F3005FFA4F108024BF230105668C2F20000B9
S31520004F4026F00103D0F808C0D1188C454F6827F009
S31520004F50030700F0958016F001064F605FD000260B
S31520004F60CC19646814F0010F06D1DB19002E7AD013
S31520004F708C68C9688C60E16043F00101D3505160B0
S31520004F80002E47D1B3F5007F5BD3590A04299EBF73
S31520004F904FEA931C0CF1380C4FEACC0428D914297B
S31520004FA09CBF01F15B0C4FEACC0421D954299EBF4A
S31520004FB04FEA133C0CF16E0C4FEACC0418D9B1F52C
S31520004FC0AA7F9EBF4FEAD33C0CF1770C4FEACC0464
S31520004FD00ED940F2545C614595BF4FEA934C4FF48D
S31520004FE07C740CF17C0C4FF07E0C98BF4FEACC04FD
S31520004FF00419A168A14203D164E089688C4204D0D7
S31520005000486820F003008342F7D3CB68D3609160D1
S31520005010CA609A602846BDE8F041FFF791BE54F871
S31520005020084C00F1080C121B1B199468644547D0E4
S31520005030D2F80CC0CCF80840C4F80CC090E7BDE804
S31520005040F081DB084FF0010C466800EBC3019B1092
S315200050500CFA03F3D1608C6846EA0303436094603C
S31520005060E2608A60D6E78C681C4FBC4281D1D3505F
S3152000507043F00103E260A26053609460D460C9E704
S31520005080FB1816F0010F07D154F8081C521A5B18AA
S31520005090D4689168A160CC604BF23C518260C2F228
S315200050A0000143F0010050600A689342B2D34BF6E8
S315200050B09C532846C2F200031968FFF7DDFEA9E7D4
S315200050C001264DE7012644684FEAAC0C0B4606FA4A
S315200050D00CFC44EA0C04446098E700BF38B1002079
S315200050E0FF7F00004176FB30825A825AFB304176A0
S315200050F00000FF7F04CF41767DA5825ABE89FB3012
S3152000510000800000BE8904CF7DA57DA504CFBE8981
S31520005110FF7F00008A7DF8184176FB306D6A1C47B8
S31520005120825A825A1C476D6AFB304176F8188A7D6E
S315200051300000FF7F07E78A7D04CF4176E3B86D6ADA
S315200051407DA5825A92951C47BE89FB307582F81838
S3152000515000800000758207E7BE8904CF9295E3B8E8
S315200051607DA57DA5E3B8929504CFBE8907E7758214
S31520005170FF7F0000627F8B0C8A7DF8187D7A2825B8
S315200051804176FB30E270563C6D6A1C47F262335121
S31520005190825A825A3351F2621C476D6A563CE2703B
S315200051A0FB30417628257D7AF8188A7D8B0C627F24
S315200051B00000FF7F74F3627F07E78A7DD7DA7D7A66
S315200051C004CF4176A9C3E270E3B86D6ACCAEF26231
S315200051D07DA5825A0D9D335192951C471D8F563CB5
S315200051E0BE89FB30828528257582F8189D808B0C18
S315200051F0008000009D8074F3758207E78285D7DAE8
S31520005200BE8904CF1D8FA9C39295E3B80D9DCCAE60
S315200052107DA57DA5CCAE0D9DE3B89295A9C31D8F26
S3152000522004CFBE89D7DA828507E7758274F39D801D
S31520005230FF7F0000D87F4706627F8B0C9D7EC812B9
S315200052408A7DF818297C191F7D7A282584781F2BBA
S315200052504176FB30B573BA36E270563CCA6DCE4104
S315200052606D6A1C47CF663F4CF2623351D75EF555C7
S31520005270825A825AF555D75E3351F2623F4CCF6639
S315200052801C476D6ACE41CA6D563CE270BA36B5737C
S31520005290FB3041761F2B847828257D7A191F297C9F
S315200052A0F8188A7DC8129D7E8B0C627F4706D87FB0
S315200052B00000FF7FB8F9D87F74F3627F37ED9D7EBB
S315200052C007E78A7DE6E0297CD7DA7D7AE0D4847800
S315200052D004CF417645C9B573A9C3E27031BECA6D04
S315200052E0E3B86D6AC0B3CF66CCAEF2620AAAD75EC7
S315200052F07DA5825A28A1F5550D9D335130993F4CF5
S3152000530092951C473592CE411D8F563C4A8CBA3613
S31520005310BE89FB307B871F2B82852825D683191FC4
S315200053207582F8186281C8129D808B0C27804706EB
S31520005330008000002780B8F99D8074F3628137EDE4
S31520005340758207E7D683E6E08285D7DA7B87E0D4C5
S31520005350BE8904CF4A8C45C91D8FA9C3359231BE5B
S315200053609295E3B83099C0B30D9DCCAE28A10AAA78
S315200053707DA57DA50AAA28A1CCAE0D9DC0B33099E6
S31520005380E3B8929531BE3592A9C31D8F45C94A8C83
S3152000539004CFBE89E0D47B87D7DA8285E6E0D68340
S315200053A007E7758237ED628174F39D80B8F927800F
S315200053B0FF7F0000F67F2403D87F4706A77F6A0970
S315200053C0627F8B0C097FAB0F9D7EC8121D7EE21576
S315200053D08A7DF818E37C0B1C297C191F5D7B232210
S315200053E07D7A28258A79262884781F2B6C77112E9A
S315200053F04176FB300475DE33B573BA3655728C3977
S31520005400E270563C5F6F173FCA6DCE41246C7A44DA
S315200054106D6A1C47A668B449CF663F4CE864BF4E08
S31520005420F2623351EC609B53D75EF555B45C42581B
S31520005430825A825A4258B45CF555D75E9B53EC602B
S315200054403351F262BF4EE8643F4CCF66B449A6683A
S315200054501C476D6A7A44246CCE41CA6D173F5F6F34
S31520005460563CE2708C395572BA36B573DE33047504
S31520005470FB304176112E6C771F2B847826288A796B
S3152000548028257D7A23225D7B191F297C0B1CE37C32
S31520005490F8188A7DE2151D7EC8129D7EAB0F097F06
S315200054A08B0C627F6A09A77F4706D87F2403F67F85
S315200054B00000FF7FDBFCF67FB8F9D87F95F6A77F43
S315200054C074F3627F54F0097F37ED9D7E1DEA1D7EC1
S315200054D007E78A7DF4E3E37CE6E0297CDCDD5D7B7F
S315200054E0D7DA7D7AD9D78A79E0D48478EED16C77E9
S315200054F004CF417621CC047545C9B57373C6557260
